:020000040800F2
:10000000400D002065010008830A0008D906000899
:10001000810A0008D1010008411300080000000017
:10002000000000000000000000000000310D00088A
:100030001502000800000000850A0008F5110008FC
:100040007F0100087F0100087F0100087F01000890
:100050007F0100087F0100087F0100087F01000880
:100060007F0100087F0100087F0100087F01000870
:100070007F0100087F0100087F0100087F01000860
:100080007F0100087F0100087F0100087F01000850
:100090007F0100087F0100087F0100087F01000840
:1000A0007F0100087F0100087F0100087F01000830
:1000B0007F0100087F0100087F0100087F01000820
:1000C0007F0100087F0100087F0100087F01000810
:1000D0007F0100087F0100087F0100087F01000800
:1000E0007F0100087F0100087F0100087F010008F0
:1000F0007F0100087F0100087F0100087F010008E0
:100100007F0100087F0100087F0100087F010008CF
:100110007F0100087F0100087F0100087F010008BF
:100120007F0100087F0100087F0100087F010008AF
:10013000DFF80CD000F03AF800480047F917000843
:10014000400D0020EFF30980704780F30988704765
:10015000EFF30880704780F30888704740BA704713
:10016000C0BA70470648804706480047FEE7FEE7EA
:10017000FEE7FEE7FEE7FEE7FEE7FEE7FEE7FEE757
:10018000F91100083101000840EA01039B0703D080
:1001900009E008C9121F08C0042AFAD203E011F8C6
:1001A000013B00F8013B521EF9D27047064C074D47
:1001B00006E0E06840F0010394E807009847103437
:1001C000AC42F6D3FFF7B8FFD81A0008F81A0008B7
:1001D000FEE700000022014403E000BF10F8013BED
:1001E0001A448842FAD3D0B27047000030B50446B2
:1001F0000020651804E000BF14F8011B01F090F81E
:10020000AC42F9D3002101F08BF8BDE83040002169
:1002100001F086B8704700002DE9F0474FF0010962
:100220004FF00208042700F057F9204D0646686891
:10023000B04338D000F04AF904466868304368603B
:1002400000F0CAF806466868411C03D0C04300F0BD
:100250006DF80646E04340070ED0E00700D1814626
:10026000A00701D44FF00008600700D400273A46E9
:100270004146484600F08AF9042E04D00CA0BDE89F
:10028000F04700F0C7BE15A000F0C4FE1B4800F008
:10029000C1FE1B4801681B4A01F4E0611143016083
:1002A000BFF3408FFEE718A0E9E700000000002040
:1002B0004572726F723A20466C617368207772697A
:1002C000746520756E70726F74656374696F6E20EB
:1002D0006661696C65642E2E2E0D0A005772697472
:1002E000652050726F74656374696F6E2064697302
:1002F00061626C65642E2E2E0D0A0000BC18000889
:100300000CED00E00400FA05466C617368206D6531
:100310006D6F7279206E6F742077726974652070CA
:10032000726F7465637465640D0A00002DE9F04313
:10033000C043C7B2C0F30726C0F30745040E4FF40D
:100340000059484600F052F904283BD1DFF87C8080
:100350001D4AC8F808201E4AC8F80820D8F81020FE
:1003600042F01002C8F81020FF2F06D0194807806D
:10037000484600F03BF904281BD1FF2E07D0154852
:10038000801C0680484600F031F9042811D1FF2D69
:1003900007D01048001D0580484600F027F90428C2
:1003A00007D1FF2C07D00B48801D0480484600F081
:1003B0001DF9052806D0D8F8102041F6EF731A4031
:1003C000C8F81020BDE8F0832301674500200240F3
:1003D000AB89EFCD08F8FF1F70B5A52500F06CF8CC
:1003E00000B100254FF43026304600F0FFF8042815
:1003F00027D1154C1348A0601448A060206940F034
:1004000020002061206940F040002061304600F06B
:10041000EDF841F6EF7604280ED1206941F6DF7140
:1004200008402061206940F01000206108480580E4
:100430004FF4005000F0DAF8052802D0216931406D
:10044000216170BD2301674500200240AB89EFCDDB
:1004500000F8FF1F70B505464FF43026304600F017
:10046000C5F8042811D1094C206940F00200206130
:100470006561206940F040002061304600F0B6F828
:10048000216941F6FD721140216170BD00200240DA
:1004900008490420CA68D20701D001207047CA6801
:1004A000520701D502207047C968C906FBD5032051
:1004B000704700000020024003490020C9698907F5
:1004C00000D5012070470000002002400148C069AB
:1004D00080087047002002400148006A7047000011
:1004E0000020024001B50098410503D0012101EB35
:1004F000D02008BDC00A08BD04490A6822F01002D5
:100500000A600A6802430A60704700000020024047
:100510002DE9F841064600204FF4005700900D46A3
:10052000384600F063F8042816D10C4C206940F0DE
:10053000010020613580B846384600F057F8BF1EEC
:10054000042806D1B61C280C00963080404600F0E6
:100550004DF8216939402161BDE8F8810020024051
:10056000034A116801F0380101431160704700002F
:10057000002002400348024941600349416070473E
:100580002301674500200240AB89EFCD2DE9F04102
:10059000134C0746114816460D46A0601148A0604E
:1005A0004FF40058404600F021F8042813D1206988
:1005B00040F01000206135430B493D4345F0F80001
:1005C0000880404600F012F8052804D0216941F661
:1005D000EF7211402161BDE8F08100002301674501
:1005E00000200240AB89EFCD02F8FF1F00B50346A3
:1005F000FFF74EFF03E000BFFFF74AFF5B1E012835
:1006000003D0002B00D1052000BD002BF4D1FAE768
:10061000F0B5CA78002502F00F03D20601D58A781A
:1006200013430A784FF00F0E12F0FF0F4FF0010244
:100630001CD004680F8802FA05F63740B74211D182
:100640004FEA850C0EFA0CF724EA070703FA0CF4BC
:100650003C43CF78282F02D0482F02D002E04661D9
:1006600000E006616D1C082DE4D304600C88FF2CAB
:100670001ED944685FF0000606F1080702FA07F584
:100680000F882F40AF420FD14FEA860C0EFA0CF7BD
:10069000BC4303FA0CF73C43CF78282F00D14561C7
:1006A000CF78482F00D10561761C082EE4D3446032
:1006B000F0BD0246002092680A4200D00120704737
:1006C00008B500208DF80000684600F00DFC0028F9
:1006D000FAD09DF8000008BDFEE7000010B586B016
:1006E0000121052000F0D0F90121880300F0CCF9A8
:1006F0004FF40070ADF8100018208DF8130003209F
:10070000154C8DF8120004A92046FFF781FF201533
:10071000ADF8100004208DF8130004A92046FFF75F
:1007200077FF4FF4E13000900020ADF80400ADF801
:100730000600ADF80800ADF80C000C20074CADF831
:100740000A006946204600F091FD0121204600F094
:100750007BFD06B010BD00000008014000380140DC
:10076000F0B500220D4B154614460A27B1FBF3F6EF
:1007700030368654B1FBF3F603FB1611B3FBF7F3E7
:10078000521C861816F8016C302E00D125B16D1C54
:10079000641C0A2CEAD3F0BD0022F9E700CA9A3B98
:1007A00008B50121202000F06FF90420ADF8000009
:1007B00003218DF802108DF8030069460148FFF708
:1007C00027FF08BD001401402B482C4C0125006870
:1007D000A0F10060000B20603E2804D205FA00F171
:1007E000491EC84301E04FF000406060FFF774FE0F
:1007F0006168814301D0A56001E00020A06020A0D5
:1008000000F008FC2EA000F005FC3DA000F002FC6A
:100810004BA000F0FFFBA06810B159A000F0FAFB5C
:1008200067A000F0F7FBFFF74BFF312806D0322816
:1008300007D0332808D0342810D012E000F096FA00
:10084000DDE700F071FBDAE76D4948682061E060A0
:100850000868FFF780FCE0688047D0E7A0680128BF
:1008600005D0A06830B167A000F0D4FBC7E7FFF760
:10087000D3FCC4E773A0F7E71C00002000000020B1
:100880000D0A3D3D3D3D3D3D3D3D3D3D3D3D3D3DFB
:100890003D3D3D3D204D61696E204D656E75203DAD
:1008A0003D3D3D3D3D3D3D3D3D3D3D3D3D3D3D3D78
:1008B0003D3D3D3D3D3D3D3D3D3D3D0D0A0A000078
:1008C0002020446F776E6C6F616420496D616765AD
:1008D00020546F207468652053544D3332463130B4
:1008E0007820496E7465726E616C20466C61736825
:1008F000202D2D2D2D2D2D2D20310D0A0A0000002B
:10090000202055706C6F616420496D6167652046D9
:10091000726F6D207468652053544D333246313008
:100920007820496E7465726E616C20466C617368E4
:10093000202D2D2D2D2D2D2D20320D0A0A000000E9
:1009400020204578656375746520546865204E6580
:10095000772050726F6772616D202D2D2D2D2D2DFA
:100960002D2D2D2D2D2D2D2D2D2D2D2D2D2D2D2DB7
:100970002D2D2D2D2D2D2D2D20330D0A0A0000009B
:10098000202044697361626C652074686520777209
:100990006974652070726F74656374696F6E202D61
:1009A0002D2D2D2D2D2D2D2D2D2D2D2D2D2D2D2D77
:1009B0002D2D2D2D2D2D2D2D20340D0A0A0000005A
:1009C0003D3D3D3D3D3D3D3D3D3D3D3D3D3D3D3D57
:1009D0003D3D3D3D3D3D3D3D3D3D3D3D3D3D3D3D47
:1009E0003D3D3D3D3D3D3D3D3D3D3D3D3D3D3D3D37
:1009F0003D3D3D3D3D3D3D3D3D3D0D0A0A00000074
:100A000000300008496E76616C6964204E756D6235
:100A100065722021203D3D3E20546865206E756D35
:100A20006265722073686F756C6420626520656909
:100A30007468657220312C20322C2033206F722094
:100A4000340D0000496E76616C6964204E756D62EC
:100A500065722021203D3D3E20546865206E756DF5
:100A60006265722073686F756C64206265206569C9
:100A70007468657220312C2032206F7220330D0093
:100A8000FEE7704770470000044A0029916901D0D1
:100A9000014300E081439161704700000010024073
:100AA0000C48016841F00101016041680A4A1140A7
:100AB00041600168094A11400160016821F4802108
:100AC0000160416821F4FE0141604FF41F01816023
:100AD00070470000001002400000FFF8FFFFF6FE24
:100AE00030B51F494A6812F00C031E4A03D0042B8C
:100AF00001D0082B21D002604A680F231A4C03EA68
:100B00001212A35C0268DA4042604B68072505EACE
:100B10001323E35C22FA03F383604B6805EAD323D3
:100B2000E35CDA40C2604968032303EA9131231F82
:100B3000595CB2FBF1F1016130BD4A684B6802F4C7
:100B400070124FF0020413F4803F04EB924202D083
:100B50004B689B0301D5054B00E0024B5A43CAE7A3
:100B60000010024000127A003000002000093D0011
:100B70000246002053090949012B0BD0022B0BD050
:100B8000D1F8241002F01F02012393400B4200D041
:100B9000012070470968F5E7096AF3E70010024091
:100BA0000248406800F00C0070470000001002404E
:100BB000034A516821F0F001014351607047000081
:100BC00000100240014908607047000000004242E6
:100BD000034A516821F4E06101435160704700000D
:100BE0000010024003494A6822F4605242EAC00001
:100BF00048607047001002400149086670470000D5
:100C000000004242034A5368084323F47C1318430C
:100C10005060704700100240034A516821F0030100
:100C200001435160704700000010024070B50C464F
:100C3000054604E0284600F057F9012804D0641E58
:100C4000F8D24FF0FF3070BD002070BD2DE9FF4796
:100C500006460420884692468DF8000000250D6067
:100C6000114602A8FFF7E2FF4FF0FF3988BB9DF85D
:100C7000080018282ED006DC012809D0022809D047
:100C8000042846D10CE0412830D0612841D12DE024
:100C9000802401E04FF4806401253070671D30E04E
:100CA0001F4CA5601F4D08E02846FFF7D3FB8DF8C9
:100CB0000000A168491CA16003D19DF80000042830
:100CC000F2D000212846FFF723FC18491648086097
:100CD00023E01EE0514602A8FFF7A8FFC8B99DF81F
:100CE0000800182815D1C8F8009016E0012004B0BB
:100CF000BDE8F08770195146FFF798FF48B96D1CA1
:100D0000ADB2BD42F6D3B178707881F0FF01884270
:100D100001D04846EBE7C8F800400020E7E70000B4
:100D200018000020002800080400FA050CED00E07F
:100D300070472DE9F04115460E460746002408E0AD
:100D4000641CE4B2322C0CD80020401CC0B2322803
:100D5000FBD331463846FFF7ACFCA842F0D0322C2A
:100D600002D90020BDE8F0810120FBE73EB518A2C2
:100D700007CA8DE8070019A000F04CF9264800F0DA
:100D800037FB041E14DD254800F044F9244800F028
:100D900041F921466846FFF7E3FC22A000F03AF94A
:100DA000684600F037F922A000F034F923A008E0EB
:100DB000601C05D0A01C07D0E41C07D025A000E0D3
:100DC0002CA000F027F93EBD3AA0FAE740A0F8E7D2
:100DD000202020202020202020200000576169743E
:100DE000696E6720666F72207468652066696C653D
:100DF00020746F2062652073656E74202E2E2E2065
:100E00002870726573732027612720746F206162D8
:100E10006F7274290A0D00004000002008190008B4
:100E2000400400200A0D2053697A653A2000000032
:100E30002042797465730D0A000000002D2D2D2DC0
:100E40002D2D2D2D2D2D2D2D2D2D2D2D2D2D2D0AF5
:100E5000000000000A0D4661696C656420746F2013
:100E600072656365697665207468652066696C657E
:100E7000210A0D000A0A0D54686520696D616765D5
:100E80002073697A652069732068696768657220D4
:100E90007468616E2074686520616C6C6F7765643E
:100EA000207370616365206D656D6F7279210A0D25
:100EB000000000000A0A0D56657269666963617474
:100EC000696F6E206661696C6564210A0D0000001F
:100ED0000D0A0A41626F727465642062792075732D
:100EE00065722E0A0D00000010B504462021054849
:100EF00000F0B4F9002804D00248001D00882070DA
:100F0000012010BD0038014010B5064C01462046B6
:100F100000F002FA8021204600F0A0F90028F9D064
:100F200010BD00000038014010B50BA000F072F8B1
:100F3000FFF7C6FB432801D015A009E04FF4FA22C1
:100F400019A11F4800F044FB08B11EA000E028A032
:100F5000BDE8104000F05EB80A0A0D53656C656389
:100F60007420526563656976652046696C65202E3C
:100F70002E2E2028707265737320616E79206B6548
:100F80007920746F2061626F7274290A0D0000006D
:100F90000D0A0A41626F727465642062792075736C
:100FA00065722E0A0D00000055706C6F61646564F7
:100FB000466C617368496D6167652E62696E0000F9
:100FC000003000080A0D4572726F72204F6363751E
:100FD000726564207768696C65205472616E736D08
:100FE000697474696E672046696C650A0D000000BB
:100FF0000A0D46696C6520547261736D697474657D
:1010000064205375636365737366756C6C79200A2D
:101010000D00000010B5044603E000BFFFF774FFA9
:10102000641C20780028F9D110BD000010B5FFF72E
:1010300037FD0120FFF7C6FD2120FFF799FD0028AD
:10104000FAD00020FFF7B4FD0020FFF7CBFD4FF4EE
:101050008060FFF7BDFD0220FFF782FA1020FFF746
:101060004BFA4FF460110020FFF7CCFD0120FFF791
:10107000C3FD3920FFF77CFD0028FAD00220FFF7DE
:10108000CBFD00BFFFF78CFD0828FBD110BD000091
:101090000CB50021264801910091026842F480328B
:1010A00002604FF4A063026802F400320092019AD9
:1010B000521C0192009A12B9019A9A42F3D1026825
:1010C000920333D5012100911A490A6842F01002B7
:1010D0000A600A6822F003020A600A6842F002020B
:1010E0000A604168416041684160416841F4806143
:1010F0004160416821F47C114160416841F4E8118C
:101100004160016841F08071016001688901FCD58E
:10111000416821F003014160416841F002014160F2
:101120004168C1F381010229FAD10CBD00910CBDC7
:10113000001002400020024070B5002204781346DF
:10114000302C04D14478782C0AD0582C08D06FF079
:101150002F05845C74B36B2C2ED04B2C2CD030E03C
:1011600082780AB30224025D5AB1A2F14105052D2D
:101170000AD9A2F16106052E06D91135092D07D924
:1011800013E001200B6011E0A2F13006092E01D816
:10119000303A04E0052D01D8373A00E0573A641C94
:1011A00002EB03130B2CDED302E000200B2C00D348
:1011B000002070BD0B6002E01AB1980207E0012028
:1011C00015E06D2C01D04D2C03D112B1180508602B
:1011D000F5E7A4F13006092E08D803EB830305EBED
:1011E0004303521C23440B2AB3D3E1E700200B2A0C
:1011F000DED270BD704700000F4810B5016841F0A5
:101200000101016041680D4A1140416001680C4ACA
:1012100011400160016821F480210160416821F4DE
:10122000FE0141604FF41F018160FFF731FF054966
:101230004FF00060086010BD001002400000FFF891
:10124000FFFFF6FE08ED00E00029818902D041F49D
:10125000005101E021F400518181704702460020D5
:1012600012880A4200D001207047000030B50446C1
:10127000008A85B00D464CF6FF710840E9880143AD
:101280002182A1894EF6F3100140A8882A891043D3
:101290006A890A431043A081A08A4FF6FF410840A3
:1012A000A9890143A1826846FFF71AFC19488442C4
:1012B00001D1039800E00298A189090400EBC00164
:1012C00001EB0010296801D5490000E08900B0FB5E
:1012D000F1F06422B0FBF2F109010B096FF018057F
:1012E0006B4300EB8300A3891D044FF0320306D546
:1012F00003EBC000B0FBF2F000F0070005E003EBE9
:101300000010B0FBF2F000F00F000843208105B0A0
:1013100030BD000000380140C1F3080181807047F2
:1013200041F4807141F2210240004900CB0500D513
:10133000401CC30300D55040CB03F5D580B27047A5
:10134000FEE7FEB505460120002628706E70FF20DE
:10135000A870344603E02B19641CD870A4B2085D51
:1013600008B1FF2CF7D92819C67068461168FFF735
:10137000F7F90020241DA1B26B4604E0401C6A541A
:10138000491C80B289B21A5C002AF7D102E06E547F
:10139000491C89B28329FAD3FEBD70B54FF480662B
:1013A000B34201D3344600E08024A34200D3234655
:1013B0009DB2B44201D1022300E001230B704A70B8
:1013C000D2438A700322EB1C04E010F8016B8E54A8
:1013D000521C92B29A42F8D3A54208D81A2298B267
:1013E000E41C02E00A54401C80B2A042FAD370BD53
:1013F0002DE9F04F80460020ADF2244D6B4CDFF814
:10140000A8B1CDF80804C4F804B0054607464FF467
:1014100080194FF0FF3ACDF8100400264A460DF22D
:101420000C416846FFF712FC88B1012868D0002FF4
:1014300000DD6D1C052D79DD1820FFF765FD1820F6
:10144000FFF762FD00200DF2244DBDE8F08FDDF8BE
:101450000C240025524507D042B19DF80100F1B29D
:1014600088420BD015209BE00620E9E70620FFF715
:101470004BFDDDF810040028CFD05BE046B14046BC
:101480000DF10301FEF780FE0027C4F810806CE028
:101490009DF8030098B30021454B0DF1030002E0D5
:1014A0005A54401C491C02780AB1FF29F8DD002774
:1014B0005F5439460DF21443401C02E05A54401C5C
:1014C000491C0278202A01D01029F7DB5F540DF562
:1014D00081611846FFF730FEDDF80804B0F5002FF3
:1014E00007DB1820FFF710FD1820FFF70DFD504611
:1014F000A9E7FEF7F7FFC4E9027038460BE016E0F3
:1015000044E06288616802FB0010FEF7A3FF2070D0
:10151000A068401CA060E168884202D221780429BA
:10152000EFD00620FFF7F0FC43202AE037E006204A
:10153000FFF7EAFCDDF8080485E721690968FEF792
:10154000E7FF6068216902680B689A4208D018209A
:10155000FFF7DAFC1820FFF7D7FC6FF0010072E705
:10156000091D001D21613F1D6060DDF80C048742EC
:1015700006DADDF80824606802EB0B018842DCD350
:101580000620FFF7C1FC0127761C47E71820FFF76C
:10159000BBFC1820FFF7B8FC6FF0020053E74320B4
:1015A000FFF7B2FC3AE70000003000081800002006
:1015B0004004002070B50D460646002404E0305D6E
:1015C000FFF7A2FC641CA4B2AC42F8D370BD0000CB
:1015D0002DE9F74FADF5A26D8146002420460DF5AB
:1015E00081620B5C1354401CC0B2FF28F9D3012761
:1015F0000DF5A3620DF581616846FFF7A2FE832118
:101600006846FFF7D7FF6D4642F2107A04E0832167
:101610006846FFF7CFFF67B18021E81CFEF7E6FDC3
:101620000646000AFFF770FCF0B2FFF76DFCA84613
:1016300006E0802108F10300FEF7CCFDFFF764FC13
:1016400051460DF5A160FFF7F1FA18B1641C0A2CA0
:10165000DDD3B7E09DF808050628F8D10A2C6BD237
:10166000CDF80C954FF0010BDDF818554EE000BF9A
:101670000BF0FF022B466946DDF80C05FFF78DFEE7
:1016800000208DF8080506464FF48064A54200D27C
:101690008024E11C6846FFF78DFF214608F1030016
:1016A00047B1FEF7A3FD8146000AFFF72DFC09F0C4
:1016B000FF0001E0FEF78EFDFFF726FC45490DF522
:1016C000A160FFF7B3FA18B99DF80805062803D002
:1016D000761C0A2ED8D317E0DDF80C05A54220446D
:1016E000CDF80C050DD92D1BBBF5FA7F04D00BF1FD
:1016F00001001FFA80FB05E0FF200DF21C5DBDE834
:10170000F08F00250A2E01D3F0B2F6E7002DAFD1FD
:101710008DF808552C4656460420FFF7F5FB314658
:101720000DF5A160FFF782FA18B99DF808050628A3
:1017300003D0641C0A2CEFD344E00A2C42D20120CF
:101740008DF800008DF80150FF2000248DF8020074
:101750008DF80855032047463D54401CC0B28328ED
:10176000FAD383216846FFF725FF8021F81CFEF796
:101770003DFD0546000AFFF7C7FBE8B2FFF7C4FBD3
:1017800031460DF5A160FFF751FA18B1641C0A2C1F
:10179000E7D317E09DF808050628F8D101250A2CA3
:1017A00010D20420FFF7B0FB31460DF5A160FFF722
:1017B0003DFA18B99DF80805062801D0641C1DB132
:1017C0000A2C04D3E0B298E70A2CEAD3FAE7002007
:1017D00093E70000A086010002E008C8121F08C1BC
:1017E000002AFAD170477047002001E001C1121FA2
:1017F000002AFBD170470000FFF718FCFEF7D0FF6E
:10180000FEF7B8FE1F4D28681F4C002204212060FF
:101810001E48FFF78EFA50B12068401C07D01C48C4
:1018200001681C4A1140B1F1005F20D029E0284630
:10183000FEF710FEFEF752FF1748FFF7EBFB1748C5
:10184000FFF7E8FB1648FFF7E5FB1648FFF7E2FB5A
:101850001348FFF7DFFB1448FFF7DCFB0E48FFF7E8
:10186000D9FB12A0FFF7D6FBFEF7AEFF09E04168F7
:10187000104A114C116021600068FEF76CFC206872
:101880008047FEE7002800081400002000140140F3
:10189000003000080000FE2F8C1A0008A81900086C
:1018A0005C190008401A0008F41900080D0A0D0A16
:1018B00000000000100000200C0000202E2E2E61E1
:1018C0006E6420612053797374656D205265736571
:1018D000742077696C6C2062652067656E65726143
:1018E00074656420746F2072652D6C6F6164207460
:1018F0006865206E6577206F7074696F6E206279FD
:101900007465730D0A0000000A0A0D2050726F679B
:1019100072616D6D696E6720436F6D706C65746583
:1019200064205375636365737366756C6C79210A03
:101930000D2D2D2D2D2D2D2D2D2D2D2D2D2D2D2DF7
:101940002D2D2D2D2D2D2D2D2D2D2D2D2D2D2D2DC7
:101950002D0D0A204E616D653A2000000D0A3D20D4
:101960002020202020202020202020202020202077
:101970002020202020202020202020202020202067
:101980002020202020202020202020202020202057
:101990002020202020202020202020202020202047
:1019A0002020203D000000000D0A3D2020202020A6
:1019B00020202020202020202028432920434F5071
:1019C00059524947485420323031302053544D69E0
:1019D00063726F656C656374726F6E6963732020E8
:1019E0002020202020202020202020202020203DDA
:1019F000000000000D0A3D20202020202020202073
:101A000020202020202020202020202020202020D6
:101A1000202020202020202020204279204D4344D7
:101A2000204170706C69636174696F6E20546561E8
:101A30006D202020202020202020203D00000000BC
:101A40000D0A3D2020202020496E2D4170706C69C8
:101A5000636174696F6E2050726F6772616D6D693A
:101A60006E67204170706C69636174696F6E2020CD
:101A70002856657273696F6E20332E332E302920FD
:101A8000202020202020203D000000000D0A3D3DA8
:101A90003D3D3D3D3D3D3D3D3D3D3D3D3D3D3D3D76
:101AA0003D3D3D3D3D3D3D3D3D3D3D3D3D3D3D3D66
:101AB0003D3D3D3D3D3D3D3D3D3D3D3D3D3D3D3D56
:101AC0003D3D3D3D3D3D3D3D3D3D3D3D3D3D3D3D46
:101AD0003D3D3D3D00000000F81A000800000020D8
:101AE00040000000D8170008381B00084000002004
:101AF000000D0000E81700080000000000000000D2
:101B000000000000000000000000000000000000D5
:101B10000400000800300008000000000000000081
:101B20000000000002040608000000000102030497
:081B3000010203040607080985
:0400000508000131BD
:00000001FF
