:020000040800F2
:10000000400D002065010008EB0B00083D080008CA
:10001000E90B0008D1010008A91400080000000045
:10002000000000000000000000000000990E000821
:100030001502000800000000ED0B00085D13000829
:100040007F0100087F0100087F0100087F01000890
:100050007F0100087F0100087F0100087F01000880
:100060007F0100087F0100087F0100087F01000870
:100070007F0100087F0100087F0100087F01000860
:100080007F0100087F0100087F0100087F01000850
:100090007F0100087F0100087F0100087F01000840
:1000A0007F0100087F0100087F0100087F01000830
:1000B0007F0100087F0100087F0100087F01000820
:1000C0007F0100087F0100087F0100087F01000810
:1000D0007F0100087F0100087F0100087F01000800
:1000E0007F0100087F0100087F0100087F010008F0
:1000F0007F0100087F0100087F0100087F010008E0
:100100007F0100087F0100087F0100087F010008CF
:100110007F0100087F0100087F0100087F010008BF
:100120007F0100087F0100087F0100087F010008AF
:10013000DFF80CD000F03AF80048004771190008C9
:10014000400D0020EFF30980704780F30988704765
:10015000EFF30880704780F30888704740BA704713
:10016000C0BA70470648804706480047FEE7FEE7EA
:10017000FEE7FEE7FEE7FEE7FEE7FEE7FEE7FEE757
:10018000611300083101000840EA01039B0703D016
:1001900009E008C9121F08C0042AFAD203E011F8C6
:1001A000013B00F8013B521EF9D27047064C074D47
:1001B00006E0E06840F0010394E807009847103437
:1001C000AC42F6D3FFF7B8FF501C0008701C0008C3
:1001D000FEE700000022014403E000BF10F8013BED
:1001E0001A448842FAD3D0B27047000030B50446B2
:1001F0000020651804E000BF14F8011B01F044F969
:10020000AC42F9D3002101F03FF9BDE830400021B4
:1002100001F03AB9704700002DE9F0474FF00109AD
:100220004FF00208042700F085F9204D0646686863
:10023000B04338D000F078F904466868304368600D
:1002400000F0CAF806466868411C03D0C04300F0BD
:100250006DF80646E04340070ED0E00700D1814626
:10026000A00701D44FF00008600700D400273A46E9
:100270004146484600F018FA042E04D00CA0BDE810
:10028000F04700F07BBF15A000F078FF1B4800F09E
:1002900075FF1B4801681B4A01F4E06111430160CE
:1002A000BFF3408FFEE718A0E9E700000000002040
:1002B0004572726F723A20466C617368207772697A
:1002C000746520756E70726F74656374696F6E20EB
:1002D0006661696C65642E2E2E0D0A005772697472
:1002E000652050726F74656374696F6E2064697302
:1002F00061626C65642E2E2E0D0A0000341A00080F
:100300000CED00E00400FA05466C617368206D6531
:100310006D6F7279206E6F742077726974652070CA
:10032000726F7465637465640D0A00002DE9F04313
:10033000C043C7B2C0F30726C0F30745040E4FF40D
:100340000059484600F004FA04283BD1DFF87C80CD
:100350001D4AC8F808201E4AC8F80820D8F81020FE
:1003600042F01002C8F81020FF2F06D0194807806D
:10037000484600F0EDF904281BD1FF2E07D01548A0
:10038000801C0680484600F0E3F9042811D1FF2DB7
:1003900007D01048001D0580484600F0D9F9042810
:1003A00007D1FF2C07D00B48801D0480484600F081
:1003B000CFF9052806D0D8F8102041F6EF731A407F
:1003C000C8F81020BDE8F0832301674500200240F3
:1003D000AB89EFCD08F8FF1F70B5A52500F09AF89E
:1003E00000B100254FF43026304600F0B1F9042862
:1003F00027D1154C1348A0601448A060206940F034
:1004000020002061206940F040002061304600F06B
:100410009FF941F6EF7604280ED1206941F6DF718D
:1004200008402061206940F01000206108480580E4
:100430004FF4005000F08CF9052802D021693140BA
:10044000216170BD2301674500200240AB89EFCDDB
:1004500000F8FF1FF0B505461848194C4FF4302638
:10046000854241F6FD77304613D200F04DF904285D
:100470000ED1206940F0020020616561206940F0E2
:1004800040002061304600F03FF921693940216188
:10049000F0BD00F04BF90428FAD1206D40F00200C5
:1004A00020656565206D40F040002065304600F015
:1004B0003DF9216D39402165F0BD0000FFFF0708BF
:1004C0000020024008490420CA68D20701D0012058
:1004D0007047CA68520701D502207047C968C9062B
:1004E000FBD503207047000000200240084904208B
:1004F000CA6CD20701D001207047CA6C520701D5DF
:1005000002207047C96CC906FBD503207047000064
:100510000020024003490020C969890700D5012055
:1005200070470000002002400148C0698008704701
:10053000002002400148006A70470000002002408D
:1005400001B50098410503D0012101EBD02008BD81
:10055000C00A08BD04490A6822F010020A600A684D
:1005600002430A6070470000002002402DE9F8476E
:10057000044600203E4A41F6FE750090A61C0F0C72
:10058000A81CDFF8F0901FFA81F894421ED2824630
:1005900000F0BAF8042817D1D9F8101041F0010181
:1005A000C9F81010A4F800805446504600F0D0F866
:1005B000042804D100963780204600F0C9F8D9F805
:1005C00010202A40C9F81020BDE8F8872849824643
:1005D000491C8C4233D100F097F80428484608D0D3
:1005E000016929400161504600F0A0F8042810D0AC
:1005F0001FE0006940F00101C9F81010A4F8008064
:10060000504600F081F8D9F810002840C9F81000D1
:10061000E9E7D9F850004C4640F00100C9F8500015
:1006200000963780504600F081F8216D2940216501
:10063000CAE7D9F850202A40C9F85020C4E700F092
:1006400075F80428C0D1D9F8501041F00101C9F85B
:100650005010A4F800805446504600F067F8042873
:10066000E7D100963780204600F060F8E1E700000F
:10067000FDFF070800200240034A116801F038011D
:100680000143116070470000002002400448034904
:100690004160044A426041644264704723016745F7
:1006A00000200240AB89EFCD2DE9F041134C074605
:1006B000114816460D46A0601148A0604FF400583E
:1006C000404600F045F8042813D1206940F010009E
:1006D000206135430B493D4345F0F8000880404612
:1006E00000F036F8052804D0216941F6EF72114078
:1006F0002161BDE8F0810000230167450020024030
:10070000AB89EFCD02F8FF1F00B50346FFF7DAFE15
:1007100003E000BFFFF7D6FE5B1E012803D0002BCD
:1007200000D1052000BD002BF4D1FAE700B5034647
:10073000FFF7DCFE03E000BFFFF7D8FE5B1E0128D9
:1007400003D0002B00D1052000BD002BF4D1FAE727
:1007500000B50346FFF7B6FE03E000BFFFF7B2FEA9
:100760005B1E012803D0002B00D1052000BD002B0B
:10077000F4D1FAE7F0B5CA78002502F00F03D206EB
:1007800001D58A7813430A784FF00F0E12F0FF0F4D
:100790004FF001021CD004680F8802FA05F63740BA
:1007A000B74211D14FEA850C0EFA0CF724EA07077D
:1007B00003FA0CF43C43CF78282F02D0482F02D004
:1007C00002E0466100E006616D1C082DE4D3046080
:1007D0000C88FF2C1ED944685FF0000606F108075C
:1007E00002FA07F50F882F40AF420FD14FEA860C6F
:1007F0000EFA0CF7BC4303FA0CF73C43CF78282FD2
:1008000000D14561CF78482F00D10561761C082EB4
:10081000E4D34460F0BD0246002092680A4200D052
:100820000120704708B500208DF80000684600F0F0
:100830000FFC0028FAD09DF8000008BDFEE700007C
:1008400010B586B00121052000F0D2F901218803FE
:1008500000F0CEF94FF40070ADF8100018208DF8BC
:1008600013000320154C8DF8120004A92046FFF751
:1008700081FF2015ADF8100004208DF8130004A9A5
:100880002046FFF777FF4FF4E13000900020ADF8ED
:100890000400ADF80600ADF80800ADF80C000C201F
:1008A000074CADF80A006946204600F093FD01218F
:1008B000204600F07DFD06B010BD0000000801409C
:1008C00000380140F0B500220D4B154614460A27AA
:1008D000B1FBF3F630368654B1FBF3F603FB161189
:1008E000B3FBF7F3521C861816F8016C302E00D1BA
:1008F00025B16D1C641C0A2CEAD3F0BD0022F9E777
:1009000000CA9A3B08B50121042000F071F90120CA
:10091000ADF8000003208DF8020048208DF8030098
:1009200069460248FFF726FF08BD000000080140A5
:100930002B482C4C01250068A0F10060000B2060C2
:100940003E2804D205FA00F1491EC84301E04FF0E9
:1009500000406060FFF7EEFD6168814301D0A56053
:1009600001E00020A06020A000F008FC2EA000F014
:1009700005FC3DA000F002FC4BA000F0FFFBA068CE
:1009800010B159A000F0FAFB67A000F0F7FBFFF7E9
:1009900049FF312806D0322807D0332808D0342820
:1009A00010D012E000F096FADDE700F071FBDAE714
:1009B0006D4948682061E0600868FFF7CCFBE0689B
:1009C0008047D0E7A068012805D0A06830B167A0B3
:1009D00000F0D4FBC7E7FFF71FFCC4E773A0F7E7FD
:1009E0001C000020000000200D0A3D3D3D3D3D3D26
:1009F0003D3D3D3D3D3D3D3D3D3D3D3D204D6169E4
:100A00006E204D656E75203D3D3D3D3D3D3D3D3D7E
:100A10003D3D3D3D3D3D3D3D3D3D3D3D3D3D3D3D06
:100A20003D3D3D0D0A0A00002020446F776E6C6F3B
:100A3000616420496D61676520546F20746865208A
:100A400053544D33324631307820496E7465726E9E
:100A5000616C20466C617368202D2D2D2D2D2D2D60
:100A600020310D0A0A000000202055706C6F61646F
:100A700020496D6167652046726F6D20746865203E
:100A800053544D33324631307820496E7465726E5E
:100A9000616C20466C617368202D2D2D2D2D2D2D20
:100AA00020320D0A0A000000202045786563757425
:100AB0006520546865204E65772050726F677261BB
:100AC0006D202D2D2D2D2D2D2D2D2D2D2D2D2D2D23
:100AD0002D2D2D2D2D2D2D2D2D2D2D2D2D2D2D2D46
:100AE00020330D0A0A000000202044697361626C03
:100AF00065207468652077726974652070726F7400
:100B0000656374696F6E202D2D2D2D2D2D2D2D2DAE
:100B10002D2D2D2D2D2D2D2D2D2D2D2D2D2D2D2D05
:100B200020340D0A0A0000003D3D3D3D3D3D3D3D68
:100B30003D3D3D3D3D3D3D3D3D3D3D3D3D3D3D3DE5
:100B40003D3D3D3D3D3D3D3D3D3D3D3D3D3D3D3DD5
:100B50003D3D3D3D3D3D3D3D3D3D3D3D3D3D3D3DC5
:100B60003D3D0D0A0A00000000300008496E766124
:100B70006C6964204E756D6265722021203D3D3E9A
:100B800020546865206E756D6265722073686F759C
:100B90006C642062652065697468657220312C2060
:100BA000322C2033206F7220340D0000496E7661A4
:100BB0006C6964204E756D6265722021203D3D3E5A
:100BC00020546865206E756D6265722073686F755C
:100BD0006C642062652065697468657220312C2020
:100BE00032206F7220330D00FEE77047704700001F
:100BF000044A0029916901D0014300E081439161D9
:100C000070470000001002400C48016841F00101EB
:100C1000016041680A4A114041600168094A114077
:100C20000160016821F480210160416821F4FE0126
:100C300041604FF41F0181607047000000100240C6
:100C40000000FFF8FFFFF6FE30B51F494A6812F0BA
:100C50000C031E4A03D0042B01D0082B21D00260C4
:100C60004A680F231A4C03EA1212A35C0268DA40A6
:100C700042604B68072505EA1323E35C22FA03F37D
:100C800083604B6805EAD323E35CDA40C2604968BD
:100C9000032303EA9131231F595CB2FBF1F1016197
:100CA00030BD4A684B6802F470124FF0020413F42E
:100CB000803F04EB924202D04B689B0301D5054B69
:100CC00000E0024B5A43CAE70010024000127A00CB
:100CD0003000002000093D00024600205309094968
:100CE000012B0BD0022B0BD0D1F8241002F01F02E5
:100CF000012393400B4200D0012070470968F5E7BB
:100D0000096AF3E7001002400248406800F00C0056
:100D10007047000000100240034A516821F0F001C2
:100D20000143516070470000001002400149086013
:100D30007047000000004242034A516821F4E0611C
:100D400001435160704700000010024003494A68A7
:100D500022F4605242EAC00048607047001002402E
:100D6000014908667047000000004242034A536888
:100D7000084323F47C13184350607047001002406E
:100D8000034A516821F0030101435160704700009C
:100D90000010024070B50C46054604E0284600F0FD
:100DA00057F9012804D0641EF8D24FF0FF3070BD0F
:100DB000002070BD2DE9FF47064604208846924674
:100DC0008DF8000000250D60114602A8FFF7E2FF34
:100DD0004FF0FF3988BB9DF8080018282ED006DC9C
:100DE000012809D0022809D0042846D10CE0412866
:100DF00030D0612841D12DE0802401E04FF480649F
:100E000001253070671D30E01F4CA5601F4D08E0C4
:100E10002846FFF71FFB8DF80000A168491CA16060
:100E200003D19DF800000428F2D000212846FFF7E6
:100E30009DFB18491648086023E01EE0514602A8B1
:100E4000FFF7A8FFC8B99DF80800182815D1C8F801
:100E5000009016E0012004B0BDE8F08770195146FB
:100E6000FFF798FF48B96D1CADB2BD42F6D3B1781B
:100E7000707881F0FF01884201D04846EBE7C8F85E
:100E800000400020E7E700001800002000280008CC
:100E90000400FA050CED00E070472DE9F04115461D
:100EA0000E460746002408E0641CE4B2322C0CD83D
:100EB0000020401CC0B23228FBD331463846FFF731
:100EC000AAFCA842F0D0322C02D90020BDE8F08163
:100ED0000120FBE73EB518A207CA8DE8070019A05C
:100EE00000F04CF9264800F037FB041E14DD2548BD
:100EF00000F044F9244800F041F921466846FFF724
:100F0000E1FC22A000F03AF9684600F037F922A08F
:100F100000F034F923A008E0601C05D0A01C07D025
:100F2000E41C07D025A000E02CA000F027F93EBD6E
:100F30003AA0FAE740A0F8E7202020202020202037
:100F40002020000057616974696E6720666F722007
:100F50007468652066696C6520746F206265207313
:100F6000656E74202E2E2E202870726573732027D4
:100F7000612720746F2061626F7274290A0D00006E
:100F800040000020801A0008400400200A0D205371
:100F9000697A653A200000002042797465730D0A71
:100FA000000000002D2D2D2D2D2D2D2D2D2D2D2D25
:100FB0002D2D2D2D2D2D2D0A000000000A0D46612E
:100FC000696C656420746F2072656365697665205D
:100FD0007468652066696C65210A0D000A0A0D5463
:100FE000686520696D6167652073697A652069733A
:100FF00020686967686572207468616E207468652E
:1010000020616C6C6F776564207370616365206D1F
:10101000656D6F7279210A0D000000000A0A0D56F5
:101020006572696669636174696F6E206661696C77
:101030006564210A0D0000000D0A0A41626F727496
:10104000656420627920757365722E0A0D000000B8
:1010500010B504462021054800F0B4F9002804D05A
:101060000248001D00882070012010BD003801409A
:1010700010B5064C0146204600F002FA80212046B9
:1010800000F0A0F90028F9D010BD000000380140A0
:1010900010B50BA000F072F8FFF7C4FB432801D095
:1010A00015A009E04FF47D2219A11F4800F04CFB68
:1010B00008B11EA000E028A0BDE8104000F05EB816
:1010C0000A0A0D53656C6563742052656365697621
:1010D000652046696C65202E2E2E2028707265735F
:1010E0007320616E79206B657920746F2061626F67
:1010F0007274290A0D0000000D0A0A41626F7274B1
:10110000656420627920757365722E0A0D000000F7
:1011100055706C6F61646564466C617368496D619C
:1011200067652E62696E0000003000080A0D457286
:10113000726F72204F636375726564207768696CA3
:1011400065205472616E736D697474696E672046B0
:10115000696C650A0D0000000A0D46696C65205433
:101160007261736D6974746564205375636365732C
:101170007366756C6C79200A0D00000010B504468A
:1011800003E000BFFFF774FF641C20780028F9D14A
:1011900010BD000010B5FFF737FD0120FFF7C6FDB9
:1011A0002120FFF799FD0028FAD00020FFF7B4FDB9
:1011B0000020FFF7CBFD4FF48060FFF7BDFD02205C
:1011C000FFF75AFA1020FFF7C5F94FF4601100201D
:1011D000FFF7CCFD0120FFF7C3FD3920FFF77CFDB1
:1011E0000028FAD00220FFF7CBFD00BFFFF78CFDEF
:1011F0000828FBD110BD00000CB500212648019144
:101200000091026842F4803202604FF4A0630268E9
:1012100002F400320092019A521C0192009A12B913
:10122000019A9A42F3D10268920333D501210091C9
:101230001A490A6842F010020A600A6822F00302A2
:101240000A600A6842F002020A604168416041682F
:101250004160416841F480614160416821F47C1142
:101260004160416841F4E8114160016841F08071DA
:10127000016001688901FCD5416821F003014160EA
:10128000416841F0020141604168C1F381010229D6
:10129000FAD10CBD00910CBD0010024000200240AC
:1012A00070B5002204781346302C04D14478782C91
:1012B0000AD0582C08D06FF02F05845C74B36B2CC7
:1012C0002ED04B2C2CD030E082780AB30224025D61
:1012D0005AB1A2F14105052D0AD9A2F16106052EE8
:1012E00006D91135092D07D913E001200B6011E053
:1012F000A2F13006092E01D8303A04E0052D01D8BC
:10130000373A00E0573A641C02EB03130B2CDED390
:1013100002E000200B2C00D3002070BD0B6002E027
:101320001AB1980207E0012015E06D2C01D04D2C78
:1013300003D112B118050860F5E7A4F13006092EB3
:1013400008D803EB830305EB4303521C23440B2A09
:10135000B3D3E1E700200B2ADED270BD7047000056
:101360000F4810B5016841F00101016041680D4A64
:101370001140416001680C4A11400160016821F48C
:1013800080210160416821F4FE0141604FF41F019A
:101390008160FFF731FF05494FF00060086010BD24
:1013A000001002400000FFF8FFFFF6FE08ED00E02D
:1013B0000029818902D041F4005101E021F400515B
:1013C000818170470246002012880A4200D0012025
:1013D0007047000030B50446008A85B00D464CF6D3
:1013E000FF710840E98801432182A1894EF6F3107C
:1013F0000140A8882A8910436A890A431043A081C2
:10140000A08A4FF6FF410840A9890143A18268469E
:10141000FFF71AFC1948844201D1039800E00298B2
:10142000A189090400EBC00101EB0010296801D576
:10143000490000E08900B0FBF1F06422B0FBF2F15A
:1014400009010B096FF018056B4300EB8300A389BA
:101450001D044FF0320306D503EBC000B0FBF2F0E1
:1014600000F0070005E003EB0010B0FBF2F000F025
:101470000F000843208105B030BD00000038014056
:10148000C1F308018180704741F4807141F221026B
:1014900040004900CB0500D5401CC30300D5504097
:1014A000CB03F5D580B27047FEE7FEB505460120B7
:1014B000002628706E70FF20A870344603E02B19B8
:1014C000641CD870A4B2085D08B1FF2CF7D92819A4
:1014D000C67068461168FFF7F5F90020241DA1B217
:1014E0006B4604E0401C6A54491C80B289B21A5C05
:1014F000002AF7D102E06E54491C89B28329FAD33D
:10150000FEBD70B54FF48066B34201D3344600E0AF
:101510008024A34200D323469DB2B44201D10223CA
:1015200000E001230B704A70D2438A700322EB1C47
:1015300004E010F8016B8E54521C92B29A42F8D318
:10154000A54208D81A2298B2E41C02E00A54401CB2
:1015500080B2A042FAD370BD2DE9F04F8146002041
:10156000ADF2244DDFF8BC81DFF8B4B1CDF808044A
:10157000C8F804B0054604464FF0FF3A4FF4801710
:10158000CDF8100400263A460DF20C416846FFF7EC
:1015900011FC90B101286AD0002C00DD6D1C052DD6
:1015A0007BDD1820FFF764FD5FF01800FFF760FD9A
:1015B00000200DF2244DBDE8F08FDDF80C2400254D
:1015C000524507D042B19DF80100F1B288420BD0DC
:1015D0001520A2E00620E9E70620FFF749FDDDF827
:1015E00010040028CED05CE046B148460DF103015E
:1015F000FEF7CAFD0024C8F8109072E09DF80300C1
:10160000A0B30021484B0DF1030002E05A54401CE6
:10161000491C02780AB1FF29F8DD00245C542146F8
:101620000DF21442401C02E05354401C491C037844
:10163000202B01D01029F7DB002050540DF58161DB
:101640001046FFF72DFEDDF80804B84207DB18202E
:10165000FFF70EFD1820FFF70BFD5046A9E7FEF738
:101660006FFFC8F80C00444600200AE016E04AE08C
:101670006288616802FB0010FEF7ECFE2070A06833
:10168000401CA060E168884202D221780429EFD092
:101690000620FFF7EDFC432030E03DE00620FFF799
:1016A000E7FCDDF8080484E7D8F810100968FEF7B5
:1016B0005DFFD8F80400D8F81020036811688B4249
:1016C00008D01820FFF7D4FC1820FFF7D1FC6FF0EA
:1016D00001006EE7121D001DC8F81020241DC8F877
:1016E0000400DDF80C04844207DADDF80834D8F889
:1016F000040003EB0B029042D6D30620FFF7B8FCA0
:101700000124761C3FE71820FFF7B2FC1820FFF7F2
:10171000AFFC6FF002004CE74320FFF7A9FC32E773
:1017200000300008180000204004002070B50D466D
:101730000646002404E0305DFFF79AFC641CA4B266
:10174000AC42F8D370BD00002DE9F74FADF5A26DA6
:101750008146002420460DF581620B5C1354401C29
:10176000C0B2FF28F9D301270DF5A3620DF5816101
:101770006846FFF79AFE83216846FFF7D7FF6D465C
:1017800042F2107A04E083216846FFF7CFFF67B189
:101790008021E81CFEF72AFD0646000AFFF768FCD8
:1017A000F0B2FFF765FCA84606E0802108F10300CF
:1017B000FEF710FDFFF75CFC51460DF5A160FFF749
:1017C000E9FA18B1641C0A2CDDD3B7E09DF80805CE
:1017D0000628F8D10A2C6BD2CDF80C954FF0010BEE
:1017E000DDF818554EE000BF0BF0FF022B466946AE
:1017F000DDF80C05FFF785FE00208DF8080506468C
:101800004FF48064A54200D28024E11C6846FFF7B3
:101810008DFF214608F1030047B1FEF7E7FC814642
:10182000000AFFF725FC09F0FF0001E0FEF7D2FCFB
:10183000FFF71EFC45490DF5A160FFF7ABFA18B99B
:101840009DF80805062803D0761C0A2ED8D317E089
:10185000DDF80C05A5422044CDF80C050DD92D1B53
:10186000BBF57D7F04D00BF101001FFA80FB05E082
:10187000FF200DF21C5DBDE8F08F00250A2E01D37C
:10188000F0B2F6E7002DAFD18DF808552C4656463C
:101890000420FFF7EDFB31460DF5A160FFF77AFA62
:1018A00018B99DF80805062803D0641C0A2CEFD34C
:1018B00044E00A2C42D201208DF800008DF801503E
:1018C000FF2000248DF802008DF8085503204746BC
:1018D0003D54401CC0B28328FAD383216846FFF7E9
:1018E00025FF8021F81CFEF781FC0546000AFFF762
:1018F000BFFBE8B2FFF7BCFB31460DF5A160FFF777
:1019000049FA18B1641C0A2CE7D317E09DF80805C2
:101910000628F8D101250A2C10D20420FFF7A8FBD5
:1019200031460DF5A160FFF735FA18B99DF80805A5
:10193000062801D0641C1DB10A2C04D3E0B298E73C
:101940000A2CEAD3FAE7002093E70000A086010002
:1019500002E008C8121F08C1002AFAD17047704778
:10196000002001E001C1121F002AFBD170470000D6
:10197000FFF710FCFEF7C6FFFEF788FE1F4D286834
:101980001F4C0022012120601E48FFF786FA50B14B
:101990002068401C07D01C4801681C4A1140B1F166
:1019A000005F20D029E02846FEF754FDFEF748FFEF
:1019B0001748FFF7E3FB1748FFF7E0FB1648FFF770
:1019C000DDFB1648FFF7DAFB1348FFF7D7FB144897
:1019D000FFF7D4FB0E48FFF7D1FB12A0FFF7CEFBB9
:1019E000FEF7A6FF09E04168104A114C1160216022
:1019F0000068FEF7B0FB20688047FEE7002800087B
:101A00001400002000080140003000080000FE2FF4
:101A1000041C0008201B0008D41A0008B81B00088A
:101A20006C1B00080D0A0D0A0000000010000020C9
:101A30000C0000202E2E2E616E64206120537973DD
:101A400074656D2052657365742077696C6C2062D3
:101A5000652067656E65726174656420746F2072BD
:101A6000652D6C6F616420746865206E6577206FEA
:101A70007074696F6E2062797465730D0A000000DE
:101A80000A0A0D2050726F6772616D6D696E672072
:101A9000436F6D706C657465642053756363657323
:101AA0007366756C6C79210A0D2D2D2D2D2D2D2D24
:101AB0002D2D2D2D2D2D2D2D2D2D2D2D2D2D2D2D56
:101AC0002D2D2D2D2D2D2D2D2D0D0A204E616D65C9
:101AD0003A2000000D0A3D20202020202020202038
:101AE00020202020202020202020202020202020F6
:101AF00020202020202020202020202020202020E6
:101B000020202020202020202020202020202020D5
:101B100020202020202020202020203D0000000028
:101B20000D0A3D20202020202020202020202020C1
:101B30002028432920434F505952494748542032C6
:101B40003031302053544D6963726F656C65637436
:101B5000726F6E69637320202020202020202020B7
:101B6000202020202020203D000000000D0A3D20E4
:101B70002020202020202020202020202020202065
:101B80002020202020202020202020202020202055
:101B900020204279204D4344204170706C6963617C
:101BA00074696F6E205465616D20202020202020F4
:101BB0002020203D000000000D0A3D202020202094
:101BC000496E2D4170706C69636174696F6E20504D
:101BD000726F6772616D6D696E67204170706C69BC
:101BE000636174696F6E20202856657273696F6E29
:101BF00020332E332E302920202020202020203D6D
:101C0000000000000D0A3D3D3D3D3D3D3D3D3D3D5B
:101C10003D3D3D3D3D3D3D3D3D3D3D3D3D3D3D3DF4
:101C20003D3D3D3D3D3D3D3D3D3D3D3D3D3D3D3DE4
:101C30003D3D3D3D3D3D3D3D3D3D3D3D3D3D3D3DD4
:101C40003D3D3D3D3D3D3D3D3D3D3D3D00000000B8
:101C5000701C00080000002040000000501900081F
:101C6000B01C000840000020000D000060190008B2
:101C70000000000000000000000000000000000064
:101C80000000000000000000040000080030000810
:101C90000000000000000000000000000204060830
:101CA0000000000001020304010203040607080902
:0400000508000131BD
:00000001FF
